{
  "_format": "hh-sol-artifact-1",
  "contractName": "Agent",
  "sourceName": "contracts/Agent.sol",
  "abi": [
    {
      "inputs": [],
      "stateMutability": "nonpayable",
      "type": "constructor"
    },
    {
      "anonymous": false,
      "inputs": [
        {
          "indexed": true,
          "internalType": "address",
          "name": "_contractAddress",
          "type": "address"
        }
      ],
      "name": "ContractDeployed",
      "type": "event"
    },
    {
      "anonymous": false,
      "inputs": [
        {
          "indexed": false,
          "internalType": "address",
          "name": "sender",
          "type": "address"
        },
        {
          "indexed": false,
          "internalType": "uint256",
          "name": "value",
          "type": "uint256"
        }
      ],
      "name": "Received",
      "type": "event"
    },
    {
      "anonymous": false,
      "inputs": [
        {
          "indexed": false,
          "internalType": "string",
          "name": "universityName",
          "type": "string"
        },
        {
          "indexed": false,
          "internalType": "address",
          "name": "universityAddress",
          "type": "address"
        },
        {
          "indexed": false,
          "internalType": "string[][]",
          "name": "notifications",
          "type": "string[][]"
        }
      ],
      "name": "StudentNotificationAdded",
      "type": "event"
    },
    {
      "anonymous": false,
      "inputs": [
        {
          "indexed": false,
          "internalType": "address",
          "name": "universityAddress",
          "type": "address"
        },
        {
          "indexed": false,
          "internalType": "string",
          "name": "name",
          "type": "string"
        },
        {
          "indexed": false,
          "internalType": "uint256[]",
          "name": "enrollments",
          "type": "uint256[]"
        }
      ],
      "name": "acceptedRequest",
      "type": "event"
    },
    {
      "inputs": [
        {
          "internalType": "string",
          "name": "_name",
          "type": "string"
        },
        {
          "internalType": "string",
          "name": "_enroll",
          "type": "string"
        }
      ],
      "name": "acceptRequest",
      "outputs": [],
      "stateMutability": "nonpayable",
      "type": "function"
    },
    {
      "inputs": [
        {
          "internalType": "string",
          "name": "_name",
          "type": "string"
        },
        {
          "internalType": "string",
          "name": "_oaddress",
          "type": "string"
        },
        {
          "internalType": "string",
          "name": "_emailId",
          "type": "string"
        }
      ],
      "name": "add_otherP",
      "outputs": [
        {
          "internalType": "string",
          "name": "",
          "type": "string"
        }
      ],
      "stateMutability": "nonpayable",
      "type": "function"
    },
    {
      "inputs": [
        {
          "internalType": "string",
          "name": "_fname",
          "type": "string"
        },
        {
          "internalType": "string",
          "name": "_lname",
          "type": "string"
        },
        {
          "internalType": "string",
          "name": "_university",
          "type": "string"
        },
        {
          "internalType": "uint256",
          "name": "_enroll",
          "type": "uint256"
        },
        {
          "internalType": "uint256",
          "name": "_gender",
          "type": "uint256"
        },
        {
          "internalType": "string",
          "name": "_branch",
          "type": "string"
        },
        {
          "internalType": "string",
          "name": "_phone",
          "type": "string"
        },
        {
          "internalType": "string",
          "name": "_emailId",
          "type": "string"
        }
      ],
      "name": "add_student",
      "outputs": [
        {
          "internalType": "string",
          "name": "",
          "type": "string"
        }
      ],
      "stateMutability": "nonpayable",
      "type": "function"
    },
    {
      "inputs": [
        {
          "internalType": "string",
          "name": "_name",
          "type": "string"
        },
        {
          "internalType": "string",
          "name": "_uaddress",
          "type": "string"
        },
        {
          "internalType": "string",
          "name": "_emailId",
          "type": "string"
        }
      ],
      "name": "add_university",
      "outputs": [
        {
          "internalType": "string",
          "name": "",
          "type": "string"
        }
      ],
      "stateMutability": "nonpayable",
      "type": "function"
    },
    {
      "inputs": [
        {
          "internalType": "uint256",
          "name": "_enroll",
          "type": "uint256"
        },
        {
          "internalType": "string",
          "name": "_hash",
          "type": "string"
        }
      ],
      "name": "approveRecord",
      "outputs": [],
      "stateMutability": "nonpayable",
      "type": "function"
    },
    {
      "inputs": [
        {
          "internalType": "address",
          "name": "addr",
          "type": "address"
        },
        {
          "internalType": "string",
          "name": "_name",
          "type": "string"
        }
      ],
      "name": "deleteOtherPNotification",
      "outputs": [],
      "stateMutability": "nonpayable",
      "type": "function"
    },
    {
      "inputs": [
        {
          "internalType": "address",
          "name": "addr",
          "type": "address"
        },
        {
          "internalType": "uint256",
          "name": "_enroll",
          "type": "uint256"
        }
      ],
      "name": "deleteStudentNotification",
      "outputs": [],
      "stateMutability": "nonpayable",
      "type": "function"
    },
    {
      "inputs": [
        {
          "internalType": "address",
          "name": "_addr",
          "type": "address"
        }
      ],
      "name": "getAddressType",
      "outputs": [
        {
          "internalType": "uint256",
          "name": "",
          "type": "uint256"
        }
      ],
      "stateMutability": "view",
      "type": "function"
    },
    {
      "inputs": [
        {
          "internalType": "string",
          "name": "universityName",
          "type": "string"
        },
        {
          "internalType": "uint256",
          "name": "_enroll",
          "type": "uint256"
        }
      ],
      "name": "getHashByEnrollAndUniversity",
      "outputs": [
        {
          "internalType": "string",
          "name": "",
          "type": "string"
        }
      ],
      "stateMutability": "view",
      "type": "function"
    },
    {
      "inputs": [],
      "name": "getOtherPNotifications",
      "outputs": [
        {
          "internalType": "string[][]",
          "name": "",
          "type": "string[][]"
        }
      ],
      "stateMutability": "view",
      "type": "function"
    },
    {
      "inputs": [],
      "name": "getRecordsofAllEnroll",
      "outputs": [
        {
          "internalType": "string[][]",
          "name": "",
          "type": "string[][]"
        }
      ],
      "stateMutability": "view",
      "type": "function"
    },
    {
      "inputs": [],
      "name": "getRecordsofOtherP",
      "outputs": [
        {
          "internalType": "string[][]",
          "name": "",
          "type": "string[][]"
        }
      ],
      "stateMutability": "view",
      "type": "function"
    },
    {
      "inputs": [],
      "name": "getStudentNotifications",
      "outputs": [
        {
          "internalType": "string[][]",
          "name": "",
          "type": "string[][]"
        }
      ],
      "stateMutability": "view",
      "type": "function"
    },
    {
      "inputs": [
        {
          "internalType": "address",
          "name": "addr",
          "type": "address"
        }
      ],
      "name": "get_otherP",
      "outputs": [
        {
          "internalType": "string",
          "name": "",
          "type": "string"
        },
        {
          "internalType": "string",
          "name": "",
          "type": "string"
        },
        {
          "internalType": "string",
          "name": "",
          "type": "string"
        }
      ],
      "stateMutability": "view",
      "type": "function"
    },
    {
      "inputs": [],
      "name": "get_otherP_list",
      "outputs": [
        {
          "internalType": "string[]",
          "name": "",
          "type": "string[]"
        }
      ],
      "stateMutability": "view",
      "type": "function"
    },
    {
      "inputs": [
        {
          "internalType": "address",
          "name": "addr",
          "type": "address"
        }
      ],
      "name": "get_student",
      "outputs": [
        {
          "components": [
            {
              "internalType": "string",
              "name": "fname",
              "type": "string"
            },
            {
              "internalType": "string",
              "name": "lname",
              "type": "string"
            },
            {
              "internalType": "string",
              "name": "university",
              "type": "string"
            },
            {
              "internalType": "uint256",
              "name": "enroll",
              "type": "uint256"
            },
            {
              "internalType": "uint256",
              "name": "gender",
              "type": "uint256"
            },
            {
              "internalType": "string",
              "name": "branch",
              "type": "string"
            },
            {
              "internalType": "string",
              "name": "phone",
              "type": "string"
            },
            {
              "internalType": "string",
              "name": "emailId",
              "type": "string"
            }
          ],
          "internalType": "struct Agent.student",
          "name": "",
          "type": "tuple"
        }
      ],
      "stateMutability": "view",
      "type": "function"
    },
    {
      "inputs": [],
      "name": "get_student_list",
      "outputs": [
        {
          "internalType": "string[]",
          "name": "",
          "type": "string[]"
        }
      ],
      "stateMutability": "view",
      "type": "function"
    },
    {
      "inputs": [
        {
          "internalType": "address",
          "name": "addr",
          "type": "address"
        }
      ],
      "name": "get_university",
      "outputs": [
        {
          "internalType": "string",
          "name": "",
          "type": "string"
        },
        {
          "internalType": "string",
          "name": "",
          "type": "string"
        },
        {
          "internalType": "string",
          "name": "",
          "type": "string"
        }
      ],
      "stateMutability": "view",
      "type": "function"
    },
    {
      "inputs": [],
      "name": "get_university_list",
      "outputs": [
        {
          "internalType": "string[]",
          "name": "",
          "type": "string[]"
        }
      ],
      "stateMutability": "view",
      "type": "function"
    },
    {
      "inputs": [
        {
          "internalType": "string",
          "name": "",
          "type": "string"
        }
      ],
      "name": "otherPList",
      "outputs": [
        {
          "internalType": "address",
          "name": "",
          "type": "address"
        }
      ],
      "stateMutability": "view",
      "type": "function"
    },
    {
      "inputs": [
        {
          "internalType": "uint256",
          "name": "",
          "type": "uint256"
        }
      ],
      "name": "otherPNames",
      "outputs": [
        {
          "internalType": "string",
          "name": "",
          "type": "string"
        }
      ],
      "stateMutability": "view",
      "type": "function"
    },
    {
      "inputs": [
        {
          "internalType": "string",
          "name": "_name",
          "type": "string"
        }
      ],
      "name": "rejectOrequest",
      "outputs": [],
      "stateMutability": "nonpayable",
      "type": "function"
    },
    {
      "inputs": [
        {
          "internalType": "uint256",
          "name": "_enroll",
          "type": "uint256"
        }
      ],
      "name": "rejectSRecord",
      "outputs": [],
      "stateMutability": "nonpayable",
      "type": "function"
    },
    {
      "inputs": [
        {
          "internalType": "string",
          "name": "universityName",
          "type": "string"
        },
        {
          "internalType": "uint256",
          "name": "enroll",
          "type": "uint256"
        }
      ],
      "name": "sendOPartyrecordsToUniversity",
      "outputs": [],
      "stateMutability": "nonpayable",
      "type": "function"
    },
    {
      "inputs": [
        {
          "internalType": "string",
          "name": "ipfsHash",
          "type": "string"
        }
      ],
      "name": "sendRecordsToUniversity",
      "outputs": [
        {
          "internalType": "string",
          "name": "",
          "type": "string"
        },
        {
          "internalType": "address",
          "name": "",
          "type": "address"
        }
      ],
      "stateMutability": "nonpayable",
      "type": "function"
    },
    {
      "inputs": [
        {
          "internalType": "string",
          "name": "",
          "type": "string"
        }
      ],
      "name": "studentList",
      "outputs": [
        {
          "internalType": "address",
          "name": "",
          "type": "address"
        }
      ],
      "stateMutability": "view",
      "type": "function"
    },
    {
      "inputs": [
        {
          "internalType": "uint256",
          "name": "",
          "type": "uint256"
        }
      ],
      "name": "studentNames",
      "outputs": [
        {
          "internalType": "string",
          "name": "",
          "type": "string"
        }
      ],
      "stateMutability": "view",
      "type": "function"
    },
    {
      "inputs": [
        {
          "internalType": "string",
          "name": "",
          "type": "string"
        }
      ],
      "name": "universityList",
      "outputs": [
        {
          "internalType": "address",
          "name": "",
          "type": "address"
        }
      ],
      "stateMutability": "view",
      "type": "function"
    },
    {
      "inputs": [
        {
          "internalType": "uint256",
          "name": "",
          "type": "uint256"
        }
      ],
      "name": "universityNames",
      "outputs": [
        {
          "internalType": "string",
          "name": "",
          "type": "string"
        }
      ],
      "stateMutability": "view",
      "type": "function"
    },
    {
      "stateMutability": "payable",
      "type": "receive"
    }
  ],
  "bytecode": "0x608060405234801561001057600080fd5b503073ffffffffffffffffffffffffffffffffffffffff167f8ffcdc15a283d706d38281f500270d8b5a656918f555de0913d7455e3e6bc1bf60405160405180910390a26152b4806100636000396000f3fe6080604052600436106101c65760003560e01c8063abfbfb88116100f7578063c9b7fff011610095578063e7c969c811610064578063e7c969c814610721578063ed89cd1f1461074a578063f2db792214610775578063f7c4b10d146107b257610206565b8063c9b7fff014610653578063cac0399a1461067c578063d191d5d0146106bb578063e4d1ee61146106e457610206565b8063b3eb7fa5116100d1578063b3eb7fa514610570578063b5bb8bb9146105ad578063c77ea099146105eb578063c81b48761461061657610206565b8063abfbfb88146104cd578063ac75b700146104f6578063afc2ae541461053357610206565b80636ede68de116101645780637e7d691c1161013e5780637e7d691c1461040d57806381f9ddd61461043857806388c06d6d14610463578063a7ca8faa146104a257610206565b80636ede68de1461036a57806372aeb0a4146103a7578063795c006f146103e457610206565b80632bf60983116101a05780632bf60983146102b05780632ca41ec0146102db57806352c0b0a614610304578063600c7ae11461034157610206565b80631187448f1461020b578063226ac1791461024857806322cb56fe1461027357610206565b36610206577f88a5966d370b9919b20f3e2c13ff65706f196a4e32cc2c12bf57088f8852587433346040516101fc929190613c36565b60405180910390a1005b600080fd5b34801561021757600080fd5b50610232600480360381019061022d9190613db9565b6107ef565b60405161023f9190613e02565b60405180910390f35b34801561025457600080fd5b5061025d610838565b60405161026a9190613f5e565b60405180910390f35b34801561027f57600080fd5b5061029a60048036038101906102959190613db9565b610911565b6040516102a79190613e02565b60405180910390f35b3480156102bc57600080fd5b506102c561095a565b6040516102d291906140c8565b60405180910390f35b3480156102e757600080fd5b5061030260048036038101906102fd9190614116565b611047565b005b34801561031057600080fd5b5061032b60048036038101906103269190614172565b61127d565b6040516103389190614263565b60405180910390f35b34801561034d57600080fd5b5061036860048036038101906103639190613db9565b61141e565b005b34801561037657600080fd5b50610391600480360381019061038c9190613db9565b611431565b60405161039e9190613e02565b60405180910390f35b3480156103b357600080fd5b506103ce60048036038101906103c991906142b1565b61147a565b6040516103db91906142de565b60405180910390f35b3480156103f057600080fd5b5061040b600480360381019061040691906142f9565b6115a5565b005b34801561041957600080fd5b5061042261182c565b60405161042f91906140c8565b60405180910390f35b34801561044457600080fd5b5061044d611b02565b60405161045a91906140c8565b60405180910390f35b34801561046f57600080fd5b5061048a600480360381019061048591906142b1565b611c68565b60405161049993929190614371565b60405180910390f35b3480156104ae57600080fd5b506104b7611ee4565b6040516104c49190613f5e565b60405180910390f35b3480156104d957600080fd5b506104f460048036038101906104ef91906143bd565b611fbd565b005b34801561050257600080fd5b5061051d60048036038101906105189190614116565b61202f565b60405161052a9190614263565b60405180910390f35b34801561053f57600080fd5b5061055a60048036038101906105559190614419565b6121cb565b6040516105679190614263565b60405180910390f35b34801561057c57600080fd5b5061059760048036038101906105929190614577565b6123a2565b6040516105a49190614263565b60405180910390f35b3480156105b957600080fd5b506105d460048036038101906105cf9190613db9565b61244e565b6040516105e29291906145a4565b60405180910390f35b3480156105f757600080fd5b50610600612752565b60405161060d91906140c8565b60405180910390f35b34801561062257600080fd5b5061063d60048036038101906106389190614172565b6128b8565b60405161064a9190614263565b60405180910390f35b34801561065f57600080fd5b5061067a600480360381019061067591906145d4565b612a3c565b005b34801561068857600080fd5b506106a3600480360381019061069e91906142b1565b612be7565b6040516106b293929190614371565b60405180910390f35b3480156106c757600080fd5b506106e260048036038101906106dd9190614577565b612e63565b005b3480156106f057600080fd5b5061070b600480360381019061070691906142b1565b612e76565b6040516107189190614712565b60405180910390f35b34801561072d57600080fd5b5061074860048036038101906107439190614734565b613250565b005b34801561075657600080fd5b5061075f613403565b60405161076c9190613f5e565b60405180910390f35b34801561078157600080fd5b5061079c60048036038101906107979190614577565b6134dc565b6040516107a99190614263565b60405180910390f35b3480156107be57600080fd5b506107d960048036038101906107d49190614577565b613588565b6040516107e69190614263565b60405180910390f35b6006818051602081018201805184825260208301602085012081835280955050505050506000915054906101000a900473ffffffffffffffffffffffffffffffffffffffff1681565b60606001805480602002602001604051908101604052809291908181526020016000905b8282101561090857838290600052602060002001805461087b906147a3565b80601f01602080910402602001604051908101604052809291908181526020018280546108a7906147a3565b80156108f45780601f106108c9576101008083540402835291602001916108f4565b820191906000526020600020905b8154815290600101906020018083116108d757829003601f168201915b50505050508152602001906001019061085c565b50505050905090565b6005818051602081018201805184825260208301602085012081835280955050505050506000915054906101000a900473ffffffffffffffffffffffffffffffffffffffff1681565b60606000339050600060018054905067ffffffffffffffff81111561098257610981613c8e565b5b6040519080825280602002602001820160405280156109b557816020015b60608152602001906001900390816109a05790505b50905060005b60018054905081101561103e576000600182815481106109de576109dd6147d4565b5b9060005260206000200180546109f3906147a3565b80601f0160208091040260200160405190810160405280929190818152602001828054610a1f906147a3565b8015610a6c5780601f10610a4157610100808354040283529160200191610a6c565b820191906000526020600020905b815481529060010190602001808311610a4f57829003601f168201915b505050505090506000600482604051610a85919061483f565b908152602001604051809103902060009054906101000a900473ffffffffffffffffffffffffffffffffffffffff1690506000600760008373ffffffffffffffffffffffffffffffffffffffff1673ffffffffffffffffffffffffffffffffffffffff16815260200190815260200160002060405180610100016040529081600082018054610b13906147a3565b80601f0160208091040260200160405190810160405280929190818152602001828054610b3f906147a3565b8015610b8c5780601f10610b6157610100808354040283529160200191610b8c565b820191906000526020600020905b815481529060010190602001808311610b6f57829003601f168201915b50505050508152602001600182018054610ba5906147a3565b80601f0160208091040260200160405190810160405280929190818152602001828054610bd1906147a3565b8015610c1e5780601f10610bf357610100808354040283529160200191610c1e565b820191906000526020600020905b815481529060010190602001808311610c0157829003601f168201915b50505050508152602001600282018054610c37906147a3565b80601f0160208091040260200160405190810160405280929190818152602001828054610c63906147a3565b8015610cb05780601f10610c8557610100808354040283529160200191610cb0565b820191906000526020600020905b815481529060010190602001808311610c9357829003601f168201915b505050505081526020016003820154815260200160048201548152602001600582018054610cdd906147a3565b80601f0160208091040260200160405190810160405280929190818152602001828054610d09906147a3565b8015610d565780601f10610d2b57610100808354040283529160200191610d56565b820191906000526020600020905b815481529060010190602001808311610d3957829003601f168201915b50505050508152602001600682018054610d6f906147a3565b80601f0160208091040260200160405190810160405280929190818152602001828054610d9b906147a3565b8015610de85780601f10610dbd57610100808354040283529160200191610de8565b820191906000526020600020905b815481529060010190602001808311610dcb57829003601f168201915b50505050508152602001600782018054610e01906147a3565b80601f0160208091040260200160405190810160405280929190818152602001828054610e2d906147a3565b8015610e7a5780601f10610e4f57610100808354040283529160200191610e7a565b820191906000526020600020905b815481529060010190602001808311610e5d57829003601f168201915b50505050508152505090506000816060015190506000600b60008973ffffffffffffffffffffffffffffffffffffffff1673ffffffffffffffffffffffffffffffffffffffff16815260200190815260200160002060008381526020019081526020016000208054610eeb906147a3565b80601f0160208091040260200160405190810160405280929190818152602001828054610f17906147a3565b8015610f645780601f10610f3957610100808354040283529160200191610f64565b820191906000526020600020905b815481529060010190602001808311610f4757829003601f168201915b505050505090506000600267ffffffffffffffff811115610f8857610f87613c8e565b5b604051908082528060200260200182016040528015610fbb57816020015b6060815260200190600190039081610fa65790505b509050610fc783613634565b81600081518110610fdb57610fda6147d4565b5b60200260200101819052508181600181518110610ffb57610ffa6147d4565b5b60200260200101819052508088888151811061101a576110196147d4565b5b6020026020010181905250505050505050808061103690614885565b9150506109bb565b50809250505090565b6000339050600060058460405161105e919061483f565b908152602001604051809103902060009054906101000a900473ffffffffffffffffffffffffffffffffffffffff1690506000600960008473ffffffffffffffffffffffffffffffffffffffff1673ffffffffffffffffffffffffffffffffffffffff16815260200190815260200160002060000180546110de906147a3565b80601f016020809104026020016040519081016040528092919081815260200182805461110a906147a3565b80156111575780601f1061112c57610100808354040283529160200191611157565b820191906000526020600020905b81548152906001019060200180831161113a57829003601f168201915b505050505090506000600267ffffffffffffffff81111561117b5761117a613c8e565b5b6040519080825280602002602001820160405280156111ae57816020015b60608152602001906001900390816111995790505b50905081816000815181106111c6576111c56147d4565b5b60200260200101819052506111da85613634565b816001815181106111ee576111ed6147d4565b5b6020026020010181905250600860008473ffffffffffffffffffffffffffffffffffffffff1673ffffffffffffffffffffffffffffffffffffffff16815260200190815260200160002060050181908060018154018082558091505060019003906000526020600020016000909190919091509080519060200190611274929190613966565b50505050505050565b6060600033905061128c6139bf565b85816000018190525084816020018190525083816040018190525080600860003373ffffffffffffffffffffffffffffffffffffffff1673ffffffffffffffffffffffffffffffffffffffff16815260200190815260200160002060008201518160000190816112fc9190614a79565b5060208201518160010190816113129190614a79565b5060408201518160020190816113289190614a79565b50606082015181600301908161133e9190614a79565b50608082015181600401908051906020019061135b9291906139f5565b5060a08201518160050190805190602001906113789291906139f5565b509050508160058760405161138d919061483f565b908152602001604051809103902060006101000a81548173ffffffffffffffffffffffffffffffffffffffff021916908373ffffffffffffffffffffffffffffffffffffffff16021790555060028690806001815401808255809150506001900390600052602060002001600090919091909150908161140d9190614a79565b508060000151925050509392505050565b600033905061142d8183612a3c565b5050565b6004818051602081018201805184825260208301602085012081835280955050505050506000915054906101000a900473ffffffffffffffffffffffffffffffffffffffff1681565b600080600760008473ffffffffffffffffffffffffffffffffffffffff1673ffffffffffffffffffffffffffffffffffffffff16815260200190815260200160002060000180546114ca906147a3565b905011156114db57600190506115a0565b6000600860008473ffffffffffffffffffffffffffffffffffffffff1673ffffffffffffffffffffffffffffffffffffffff168152602001908152602001600020600001805461152a906147a3565b9050111561153b57600290506115a0565b6000600960008473ffffffffffffffffffffffffffffffffffffffff1673ffffffffffffffffffffffffffffffffffffffff168152602001908152602001600020600001805461158a906147a3565b9050111561159b57600390506115a0565b600490505b919050565b600033905060006115b5836137d3565b905060006006856040516115c9919061483f565b908152602001604051809103902060009054906101000a900473ffffffffffffffffffffffffffffffffffffffff1690506000600b60008573ffffffffffffffffffffffffffffffffffffffff1673ffffffffffffffffffffffffffffffffffffffff16815260200190815260200160002060008481526020019081526020016000208054611657906147a3565b80601f0160208091040260200160405190810160405280929190818152602001828054611683906147a3565b80156116d05780601f106116a5576101008083540402835291602001916116d0565b820191906000526020600020905b8154815290600101906020018083116116b357829003601f168201915b5050505050905080600c60008473ffffffffffffffffffffffffffffffffffffffff1673ffffffffffffffffffffffffffffffffffffffff168152602001908152602001600020600085815260200190815260200160002090816117349190614a79565b50600960008373ffffffffffffffffffffffffffffffffffffffff1673ffffffffffffffffffffffffffffffffffffffff1681526020019081526020016000206004018390806001815401808255809150506001900390600052602060002001600090919091909150557fd1728990f84de3389d879d42b31b11af04be79c3e0ed2a297f761ce343f71fc28486600960008673ffffffffffffffffffffffffffffffffffffffff1673ffffffffffffffffffffffffffffffffffffffff16815260200190815260200160002060040160405161181293929190614c4a565b60405180910390a16118248487612a3c565b505050505050565b606060003390506000600960008373ffffffffffffffffffffffffffffffffffffffff1673ffffffffffffffffffffffffffffffffffffffff1681526020019081526020016000206004018054806020026020016040519081016040528092919081815260200182805480156118c157602002820191906000526020600020905b8154815260200190600101908083116118ad575b5050505050905060008151905060008167ffffffffffffffff8111156118ea576118e9613c8e565b5b60405190808252806020026020018201604052801561191d57816020015b60608152602001906001900390816119085790505b50905060005b82811015611af75760008482815181106119405761193f6147d4565b5b602002602001015190506000600c60008873ffffffffffffffffffffffffffffffffffffffff1673ffffffffffffffffffffffffffffffffffffffff168152602001908152602001600020600083815260200190815260200160002080546119a7906147a3565b80601f01602080910402602001604051908101604052809291908181526020018280546119d3906147a3565b8015611a205780601f106119f557610100808354040283529160200191611a20565b820191906000526020600020905b815481529060010190602001808311611a0357829003601f168201915b505050505090506000600267ffffffffffffffff811115611a4457611a43613c8e565b5b604051908082528060200260200182016040528015611a7757816020015b6060815260200190600190039081611a625790505b509050611a8383613634565b81600081518110611a9757611a966147d4565b5b60200260200101819052508181600181518110611ab757611ab66147d4565b5b602002602001018190525080858581518110611ad657611ad56147d4565b5b60200260200101819052505050508080611aef90614885565b915050611923565b508094505050505090565b60606000339050600860008273ffffffffffffffffffffffffffffffffffffffff1673ffffffffffffffffffffffffffffffffffffffff168152602001908152602001600020600401805480602002602001604051908101604052809291908181526020016000905b82821015611c5e57838290600052602060002001805480602002602001604051908101604052809291908181526020016000905b82821015611c4b578382906000526020600020018054611bbe906147a3565b80601f0160208091040260200160405190810160405280929190818152602001828054611bea906147a3565b8015611c375780601f10611c0c57610100808354040283529160200191611c37565b820191906000526020600020905b815481529060010190602001808311611c1a57829003601f168201915b505050505081526020019060010190611b9f565b5050505081526020019060010190611b6b565b5050505091505090565b6060806060600960008573ffffffffffffffffffffffffffffffffffffffff1673ffffffffffffffffffffffffffffffffffffffff168152602001908152602001600020600001600960008673ffffffffffffffffffffffffffffffffffffffff1673ffffffffffffffffffffffffffffffffffffffff168152602001908152602001600020600101600960008773ffffffffffffffffffffffffffffffffffffffff1673ffffffffffffffffffffffffffffffffffffffff168152602001908152602001600020600301828054611d3f906147a3565b80601f0160208091040260200160405190810160405280929190818152602001828054611d6b906147a3565b8015611db85780601f10611d8d57610100808354040283529160200191611db8565b820191906000526020600020905b815481529060010190602001808311611d9b57829003601f168201915b50505050509250818054611dcb906147a3565b80601f0160208091040260200160405190810160405280929190818152602001828054611df7906147a3565b8015611e445780601f10611e1957610100808354040283529160200191611e44565b820191906000526020600020905b815481529060010190602001808311611e2757829003601f168201915b50505050509150808054611e57906147a3565b80601f0160208091040260200160405190810160405280929190818152602001828054611e83906147a3565b8015611ed05780601f10611ea557610100808354040283529160200191611ed0565b820191906000526020600020905b815481529060010190602001808311611eb357829003601f168201915b505050505090509250925092509193909250565b60606002805480602002602001604051908101604052809291908181526020016000905b82821015611fb4578382906000526020600020018054611f27906147a3565b80601f0160208091040260200160405190810160405280929190818152602001828054611f53906147a3565b8015611fa05780601f10611f7557610100808354040283529160200191611fa0565b820191906000526020600020905b815481529060010190602001808311611f8357829003601f168201915b505050505081526020019060010190611f08565b50505050905090565b600033905081600b60008373ffffffffffffffffffffffffffffffffffffffff1673ffffffffffffffffffffffffffffffffffffffff1681526020019081526020016000206000858152602001908152602001600020908161201f9190614a79565b5061202a8184613250565b505050565b60606000600584604051612043919061483f565b908152602001604051809103902060009054906101000a900473ffffffffffffffffffffffffffffffffffffffff169050600073ffffffffffffffffffffffffffffffffffffffff168173ffffffffffffffffffffffffffffffffffffffff16036120e3576040517f08c379a00000000000000000000000000000000000000000000000000000000081526004016120da90614cdb565b60405180910390fd5b6000600b60008373ffffffffffffffffffffffffffffffffffffffff1673ffffffffffffffffffffffffffffffffffffffff16815260200190815260200160002060008581526020019081526020016000208054612140906147a3565b80601f016020809104026020016040519081016040528092919081815260200182805461216c906147a3565b80156121b95780601f1061218e576101008083540402835291602001916121b9565b820191906000526020600020905b81548152906001019060200180831161219c57829003601f168201915b50505050509050809250505092915050565b606060003390506121da613a55565b8a81600001819052508981602001819052508881604001819052508781606001818152505086816080018181525050858160a00181905250848160c00181905250838160e0018190525080600760003373ffffffffffffffffffffffffffffffffffffffff1673ffffffffffffffffffffffffffffffffffffffff16815260200190815260200160002060008201518160000190816122799190614a79565b50602082015181600101908161228f9190614a79565b5060408201518160020190816122a59190614a79565b50606082015181600301556080820151816004015560a08201518160050190816122cf9190614a79565b5060c08201518160060190816122e59190614a79565b5060e08201518160070190816122fb9190614a79565b509050508160048c604051612310919061483f565b908152602001604051809103902060006101000a81548173ffffffffffffffffffffffffffffffffffffffff021916908373ffffffffffffffffffffffffffffffffffffffff16021790555060018b9080600181540180825580915050600190039060005260206000200160009091909190915090816123909190614a79565b508a9250505098975050505050505050565b600181815481106123b257600080fd5b9060005260206000200160009150905080546123cd906147a3565b80601f01602080910402602001604051908101604052809291908181526020018280546123f9906147a3565b80156124465780601f1061241b57610100808354040283529160200191612446565b820191906000526020600020905b81548152906001019060200180831161242957829003601f168201915b505050505081565b60606000803390506000600760008373ffffffffffffffffffffffffffffffffffffffff1673ffffffffffffffffffffffffffffffffffffffff16815260200190815260200160002060020180546124a5906147a3565b80601f01602080910402602001604051908101604052809291908181526020018280546124d1906147a3565b801561251e5780601f106124f35761010080835404028352916020019161251e565b820191906000526020600020905b81548152906001019060200180831161250157829003601f168201915b505050505090506000600582604051612537919061483f565b908152602001604051809103902060009054906101000a900473ffffffffffffffffffffffffffffffffffffffff1690506000600760008573ffffffffffffffffffffffffffffffffffffffff1673ffffffffffffffffffffffffffffffffffffffff1681526020019081526020016000206003015490506000600267ffffffffffffffff8111156125cc576125cb613c8e565b5b6040519080825280602002602001820160405280156125ff57816020015b60608152602001906001900390816125ea5790505b50905061260b82613634565b8160008151811061261f5761261e6147d4565b5b6020026020010181905250878160018151811061263f5761263e6147d4565b5b6020026020010181905250600860008473ffffffffffffffffffffffffffffffffffffffff1673ffffffffffffffffffffffffffffffffffffffff168152602001908152602001600020600401819080600181540180825580915050600190039060005260206000200160009091909190915090805190602001906126c5929190613966565b507f9c88d64ac8fc010dfc255f83ad55bf8bd3860fb996dc340986040e334d9cfbb58484600860008773ffffffffffffffffffffffffffffffffffffffff1673ffffffffffffffffffffffffffffffffffffffff16815260200190815260200160002060040160405161273a93929190614ee9565b60405180910390a18383965096505050505050915091565b60606000339050600860008273ffffffffffffffffffffffffffffffffffffffff1673ffffffffffffffffffffffffffffffffffffffff168152602001908152602001600020600501805480602002602001604051908101604052809291908181526020016000905b828210156128ae57838290600052602060002001805480602002602001604051908101604052809291908181526020016000905b8282101561289b57838290600052602060002001805461280e906147a3565b80601f016020809104026020016040519081016040528092919081815260200182805461283a906147a3565b80156128875780601f1061285c57610100808354040283529160200191612887565b820191906000526020600020905b81548152906001019060200180831161286a57829003601f168201915b5050505050815260200190600101906127ef565b50505050815260200190600101906127bb565b5050505091505090565b606060003390506128c7613a9a565b85816000018190525084816060018190525083816020018190525080600960003373ffffffffffffffffffffffffffffffffffffffff1673ffffffffffffffffffffffffffffffffffffffff16815260200190815260200160002060008201518160000190816129379190614a79565b50602082015181600101908161294d9190614a79565b5060408201518160020190816129639190614a79565b5060608201518160030190816129799190614a79565b506080820151816004019080519060200190612996929190613ac9565b50905050816006876040516129ab919061483f565b908152602001604051809103902060006101000a81548173ffffffffffffffffffffffffffffffffffffffff021916908373ffffffffffffffffffffffffffffffffffffffff160217905550600386908060018154018082558091505060019003906000526020600020016000909190919091509081612a2b9190614a79565b508060000151925050509392505050565b60008290506000600860008373ffffffffffffffffffffffffffffffffffffffff1673ffffffffffffffffffffffffffffffffffffffff168152602001908152602001600020600501905060005b8180549050811015612ba75783604051602001612aa7919061483f565b60405160208183030381529060405280519060200120828281548110612ad057612acf6147d4565b5b90600052602060002001600081548110612aed57612aec6147d4565b5b90600052602060002001604051602001612b079190614fb1565b6040516020818303038152906040528051906020012003612b9457600860008473ffffffffffffffffffffffffffffffffffffffff1673ffffffffffffffffffffffffffffffffffffffff1681526020019081526020016000206005018181548110612b7657612b756147d4565b5b906000526020600020016000612b8c9190613b16565b505050612be3565b8080612b9f90614885565b915050612a8a565b506040517f08c379a0000000000000000000000000000000000000000000000000000000008152600401612bda90615014565b60405180910390fd5b5050565b6060806060600860008573ffffffffffffffffffffffffffffffffffffffff1673ffffffffffffffffffffffffffffffffffffffff168152602001908152602001600020600001600860008673ffffffffffffffffffffffffffffffffffffffff1673ffffffffffffffffffffffffffffffffffffffff168152602001908152602001600020600101600860008773ffffffffffffffffffffffffffffffffffffffff1673ffffffffffffffffffffffffffffffffffffffff168152602001908152602001600020600201828054612cbe906147a3565b80601f0160208091040260200160405190810160405280929190818152602001828054612cea906147a3565b8015612d375780601f10612d0c57610100808354040283529160200191612d37565b820191906000526020600020905b815481529060010190602001808311612d1a57829003601f168201915b50505050509250818054612d4a906147a3565b80601f0160208091040260200160405190810160405280929190818152602001828054612d76906147a3565b8015612dc35780601f10612d9857610100808354040283529160200191612dc3565b820191906000526020600020905b815481529060010190602001808311612da657829003601f168201915b50505050509150808054612dd6906147a3565b80601f0160208091040260200160405190810160405280929190818152602001828054612e02906147a3565b8015612e4f5780601f10612e2457610100808354040283529160200191612e4f565b820191906000526020600020905b815481529060010190602001808311612e3257829003601f168201915b505050505090509250925092509193909250565b6000339050612e728183613250565b5050565b612e7e613a55565b600760008373ffffffffffffffffffffffffffffffffffffffff1673ffffffffffffffffffffffffffffffffffffffff16815260200190815260200160002060405180610100016040529081600082018054612ed9906147a3565b80601f0160208091040260200160405190810160405280929190818152602001828054612f05906147a3565b8015612f525780601f10612f2757610100808354040283529160200191612f52565b820191906000526020600020905b815481529060010190602001808311612f3557829003601f168201915b50505050508152602001600182018054612f6b906147a3565b80601f0160208091040260200160405190810160405280929190818152602001828054612f97906147a3565b8015612fe45780601f10612fb957610100808354040283529160200191612fe4565b820191906000526020600020905b815481529060010190602001808311612fc757829003601f168201915b50505050508152602001600282018054612ffd906147a3565b80601f0160208091040260200160405190810160405280929190818152602001828054613029906147a3565b80156130765780601f1061304b57610100808354040283529160200191613076565b820191906000526020600020905b81548152906001019060200180831161305957829003601f168201915b5050505050815260200160038201548152602001600482015481526020016005820180546130a3906147a3565b80601f01602080910402602001604051908101604052809291908181526020018280546130cf906147a3565b801561311c5780601f106130f15761010080835404028352916020019161311c565b820191906000526020600020905b8154815290600101906020018083116130ff57829003601f168201915b50505050508152602001600682018054613135906147a3565b80601f0160208091040260200160405190810160405280929190818152602001828054613161906147a3565b80156131ae5780601f10613183576101008083540402835291602001916131ae565b820191906000526020600020905b81548152906001019060200180831161319157829003601f168201915b505050505081526020016007820180546131c7906147a3565b80601f01602080910402602001604051908101604052809291908181526020018280546131f3906147a3565b80156132405780601f1061321557610100808354040283529160200191613240565b820191906000526020600020905b81548152906001019060200180831161322357829003601f168201915b5050505050815250509050919050565b60008290506000600860008373ffffffffffffffffffffffffffffffffffffffff1673ffffffffffffffffffffffffffffffffffffffff168152602001908152602001600020600401905060005b81805490508110156133c3576132b384613634565b6040516020016132c3919061483f565b604051602081830303815290604052805190602001208282815481106132ec576132eb6147d4565b5b90600052602060002001600081548110613309576133086147d4565b5b906000526020600020016040516020016133239190614fb1565b60405160208183030381529060405280519060200120036133b057600860008473ffffffffffffffffffffffffffffffffffffffff1673ffffffffffffffffffffffffffffffffffffffff1681526020019081526020016000206004018181548110613392576133916147d4565b5b9060005260206000200160006133a89190613b16565b5050506133ff565b80806133bb90614885565b91505061329e565b506040517f08c379a00000000000000000000000000000000000000000000000000000000081526004016133f6906150a6565b60405180910390fd5b5050565b60606003805480602002602001604051908101604052809291908181526020016000905b828210156134d3578382906000526020600020018054613446906147a3565b80601f0160208091040260200160405190810160405280929190818152602001828054613472906147a3565b80156134bf5780601f10613494576101008083540402835291602001916134bf565b820191906000526020600020905b8154815290600101906020018083116134a257829003601f168201915b505050505081526020019060010190613427565b50505050905090565b600381815481106134ec57600080fd5b906000526020600020016000915090508054613507906147a3565b80601f0160208091040260200160405190810160405280929190818152602001828054613533906147a3565b80156135805780601f1061355557610100808354040283529160200191613580565b820191906000526020600020905b81548152906001019060200180831161356357829003601f168201915b505050505081565b6002818154811061359857600080fd5b9060005260206000200160009150905080546135b3906147a3565b80601f01602080910402602001604051908101604052809291908181526020018280546135df906147a3565b801561362c5780601f106136015761010080835404028352916020019161362c565b820191906000526020600020905b81548152906001019060200180831161360f57829003601f168201915b505050505081565b60606000820361367b576040518060400160405280600181526020017f300000000000000000000000000000000000000000000000000000000000000081525090506137ce565b600082905060005b600082146136ad57808061369690614885565b915050600a826136a691906150f5565b9150613683565b60008167ffffffffffffffff8111156136c9576136c8613c8e565b5b6040519080825280601f01601f1916602001820160405280156136fb5781602001600182028036833780820191505090505b50905060008290505b600086146137c6576001816137199190615126565b90506000600a808861372b91906150f5565b613735919061515a565b876137409190615126565b603061374c91906151a9565b905060008160f81b90508060006001811061376a576137696147d4565b5b1a60f81b848481518110613781576137806147d4565b5b60200101907effffffffffffffffffffffffffffffffffffffffffffffffffffffffffffff1916908160001a905350600a886137bd91906150f5565b97505050613704565b819450505050505b919050565b6000808290506000805b825181101561395b57603060f81b7effffffffffffffffffffffffffffffffffffffffffffffffffffffffffffff19168382815181106138205761381f6147d4565b5b602001015160f81c60f81b7effffffffffffffffffffffffffffffffffffffffffffffffffffffffffffff1916101580156138c05750603960f81b7effffffffffffffffffffffffffffffffffffffffffffffffffffffffffffff19168382815181106138905761388f6147d4565b5b602001015160f81c60f81b7effffffffffffffffffffffffffffffffffffffffffffffffffffffffffffff191611155b6138ff576040517f08c379a00000000000000000000000000000000000000000000000000000000081526004016138f69061522a565b60405180910390fd5b6030838281518110613914576139136147d4565b5b602001015160f81c60f81b60f81c60ff1661392f9190615126565b600a8361393c919061515a565b613946919061524a565b9150808061395390614885565b9150506137dd565b508092505050919050565b8280548282559060005260206000209081019282156139ae579160200282015b828111156139ad57825182908161399d9190614a79565b5091602001919060010190613986565b5b5090506139bb9190613b37565b5090565b6040518060c001604052806060815260200160608152602001606081526020016060815260200160608152602001606081525090565b828054828255906000526020600020908101928215613a44579160200282015b82811115613a43578251829080519060200190613a33929190613966565b5091602001919060010190613a15565b5b509050613a519190613b5b565b5090565b60405180610100016040528060608152602001606081526020016060815260200160008152602001600081526020016060815260200160608152602001606081525090565b6040518060a0016040528060608152602001606081526020016060815260200160608152602001606081525090565b828054828255906000526020600020908101928215613b05579160200282015b82811115613b04578251825591602001919060010190613ae9565b5b509050613b129190613b7f565b5090565b5080546000825590600052602060002090810190613b349190613b37565b50565b5b80821115613b575760008181613b4e9190613b9c565b50600101613b38565b5090565b5b80821115613b7b5760008181613b729190613b16565b50600101613b5c565b5090565b5b80821115613b98576000816000905550600101613b80565b5090565b508054613ba8906147a3565b6000825580601f10613bba5750613bd9565b601f016020900490600052602060002090810190613bd89190613b7f565b5b50565b600073ffffffffffffffffffffffffffffffffffffffff82169050919050565b6000613c0782613bdc565b9050919050565b613c1781613bfc565b82525050565b6000819050919050565b613c3081613c1d565b82525050565b6000604082019050613c4b6000830185613c0e565b613c586020830184613c27565b9392505050565b6000604051905090565b600080fd5b600080fd5b600080fd5b600080fd5b6000601f19601f8301169050919050565b7f4e487b7100000000000000000000000000000000000000000000000000000000600052604160045260246000fd5b613cc682613c7d565b810181811067ffffffffffffffff82111715613ce557613ce4613c8e565b5b80604052505050565b6000613cf8613c5f565b9050613d048282613cbd565b919050565b600067ffffffffffffffff821115613d2457613d23613c8e565b5b613d2d82613c7d565b9050602081019050919050565b82818337600083830152505050565b6000613d5c613d5784613d09565b613cee565b905082815260208101848484011115613d7857613d77613c78565b5b613d83848285613d3a565b509392505050565b600082601f830112613da057613d9f613c73565b5b8135613db0848260208601613d49565b91505092915050565b600060208284031215613dcf57613dce613c69565b5b600082013567ffffffffffffffff811115613ded57613dec613c6e565b5b613df984828501613d8b565b91505092915050565b6000602082019050613e176000830184613c0e565b92915050565b600081519050919050565b600082825260208201905092915050565b6000819050602082019050919050565b600081519050919050565b600082825260208201905092915050565b60005b83811015613e83578082015181840152602081019050613e68565b60008484015250505050565b6000613e9a82613e49565b613ea48185613e54565b9350613eb4818560208601613e65565b613ebd81613c7d565b840191505092915050565b6000613ed48383613e8f565b905092915050565b6000602082019050919050565b6000613ef482613e1d565b613efe8185613e28565b935083602082028501613f1085613e39565b8060005b85811015613f4c5784840389528151613f2d8582613ec8565b9450613f3883613edc565b925060208a01995050600181019050613f14565b50829750879550505050505092915050565b60006020820190508181036000830152613f788184613ee9565b905092915050565b600081519050919050565b600082825260208201905092915050565b6000819050602082019050919050565b600082825260208201905092915050565b6000613fc882613e1d565b613fd28185613fac565b935083602082028501613fe485613e39565b8060005b8581101561402057848403895281516140018582613ec8565b945061400c83613edc565b925060208a01995050600181019050613fe8565b50829750879550505050505092915050565b600061403e8383613fbd565b905092915050565b6000602082019050919050565b600061405e82613f80565b6140688185613f8b565b93508360208202850161407a85613f9c565b8060005b858110156140b657848403895281516140978582614032565b94506140a283614046565b925060208a0199505060018101905061407e565b50829750879550505050505092915050565b600060208201905081810360008301526140e28184614053565b905092915050565b6140f381613c1d565b81146140fe57600080fd5b50565b600081359050614110816140ea565b92915050565b6000806040838503121561412d5761412c613c69565b5b600083013567ffffffffffffffff81111561414b5761414a613c6e565b5b61415785828601613d8b565b925050602061416885828601614101565b9150509250929050565b60008060006060848603121561418b5761418a613c69565b5b600084013567ffffffffffffffff8111156141a9576141a8613c6e565b5b6141b586828701613d8b565b935050602084013567ffffffffffffffff8111156141d6576141d5613c6e565b5b6141e286828701613d8b565b925050604084013567ffffffffffffffff81111561420357614202613c6e565b5b61420f86828701613d8b565b9150509250925092565b600082825260208201905092915050565b600061423582613e49565b61423f8185614219565b935061424f818560208601613e65565b61425881613c7d565b840191505092915050565b6000602082019050818103600083015261427d818461422a565b905092915050565b61428e81613bfc565b811461429957600080fd5b50565b6000813590506142ab81614285565b92915050565b6000602082840312156142c7576142c6613c69565b5b60006142d58482850161429c565b91505092915050565b60006020820190506142f36000830184613c27565b92915050565b600080604083850312156143105761430f613c69565b5b600083013567ffffffffffffffff81111561432e5761432d613c6e565b5b61433a85828601613d8b565b925050602083013567ffffffffffffffff81111561435b5761435a613c6e565b5b61436785828601613d8b565b9150509250929050565b6000606082019050818103600083015261438b818661422a565b9050818103602083015261439f818561422a565b905081810360408301526143b3818461422a565b9050949350505050565b600080604083850312156143d4576143d3613c69565b5b60006143e285828601614101565b925050602083013567ffffffffffffffff81111561440357614402613c6e565b5b61440f85828601613d8b565b9150509250929050565b600080600080600080600080610100898b03121561443a57614439613c69565b5b600089013567ffffffffffffffff81111561445857614457613c6e565b5b6144648b828c01613d8b565b985050602089013567ffffffffffffffff81111561448557614484613c6e565b5b6144918b828c01613d8b565b975050604089013567ffffffffffffffff8111156144b2576144b1613c6e565b5b6144be8b828c01613d8b565b96505060606144cf8b828c01614101565b95505060806144e08b828c01614101565b94505060a089013567ffffffffffffffff81111561450157614500613c6e565b5b61450d8b828c01613d8b565b93505060c089013567ffffffffffffffff81111561452e5761452d613c6e565b5b61453a8b828c01613d8b565b92505060e089013567ffffffffffffffff81111561455b5761455a613c6e565b5b6145678b828c01613d8b565b9150509295985092959890939650565b60006020828403121561458d5761458c613c69565b5b600061459b84828501614101565b91505092915050565b600060408201905081810360008301526145be818561422a565b90506145cd6020830184613c0e565b9392505050565b600080604083850312156145eb576145ea613c69565b5b60006145f98582860161429c565b925050602083013567ffffffffffffffff81111561461a57614619613c6e565b5b61462685828601613d8b565b9150509250929050565b61463981613c1d565b82525050565b600061010083016000830151848203600086015261465d8282613e8f565b915050602083015184820360208601526146778282613e8f565b915050604083015184820360408601526146918282613e8f565b91505060608301516146a66060860182614630565b5060808301516146b96080860182614630565b5060a083015184820360a08601526146d18282613e8f565b91505060c083015184820360c08601526146eb8282613e8f565b91505060e083015184820360e08601526147058282613e8f565b9150508091505092915050565b6000602082019050818103600083015261472c818461463f565b905092915050565b6000806040838503121561474b5761474a613c69565b5b60006147598582860161429c565b925050602061476a85828601614101565b9150509250929050565b7f4e487b7100000000000000000000000000000000000000000000000000000000600052602260045260246000fd5b600060028204905060018216806147bb57607f821691505b6020821081036147ce576147cd614774565b5b50919050565b7f4e487b7100000000000000000000000000000000000000000000000000000000600052603260045260246000fd5b600081905092915050565b600061481982613e49565b6148238185614803565b9350614833818560208601613e65565b80840191505092915050565b600061484b828461480e565b915081905092915050565b7f4e487b7100000000000000000000000000000000000000000000000000000000600052601160045260246000fd5b600061489082613c1d565b91507fffffffffffffffffffffffffffffffffffffffffffffffffffffffffffffffff82036148c2576148c1614856565b5b600182019050919050565b60008190508160005260206000209050919050565b60006020601f8301049050919050565b600082821b905092915050565b60006008830261492f7fffffffffffffffffffffffffffffffffffffffffffffffffffffffffffffffff826148f2565b61493986836148f2565b95508019841693508086168417925050509392505050565b6000819050919050565b600061497661497161496c84613c1d565b614951565b613c1d565b9050919050565b6000819050919050565b6149908361495b565b6149a461499c8261497d565b8484546148ff565b825550505050565b600090565b6149b96149ac565b6149c4818484614987565b505050565b5b818110156149e8576149dd6000826149b1565b6001810190506149ca565b5050565b601f821115614a2d576149fe816148cd565b614a07846148e2565b81016020851015614a16578190505b614a2a614a22856148e2565b8301826149c9565b50505b505050565b600082821c905092915050565b6000614a5060001984600802614a32565b1980831691505092915050565b6000614a698383614a3f565b9150826002028217905092915050565b614a8282613e49565b67ffffffffffffffff811115614a9b57614a9a613c8e565b5b614aa582546147a3565b614ab08282856149ec565b600060209050601f831160018114614ae35760008415614ad1578287015190505b614adb8582614a5d565b865550614b43565b601f198416614af1866148cd565b60005b82811015614b1957848901518255600182019150602085019450602081019050614af4565b86831015614b365784890151614b32601f891682614a3f565b8355505b6001600288020188555050505b505050505050565b600081549050919050565b600082825260208201905092915050565b60008190508160005260206000209050919050565b6000614b888383614630565b60208301905092915050565b60008160001c9050919050565b6000819050919050565b6000614bbe614bb983614b94565b614ba1565b9050919050565b6000614bd18254614bab565b9050919050565b6000600182019050919050565b6000614bf082614b4b565b614bfa8185614b56565b9350614c0583614b67565b8060005b83811015614c3d57614c1a82614bc5565b614c248882614b7c565b9750614c2f83614bd8565b925050600181019050614c09565b5085935050505092915050565b6000606082019050614c5f6000830186613c0e565b8181036020830152614c71818561422a565b90508181036040830152614c858184614be5565b9050949350505050565b7f556e6976657273697479206e6f7420666f756e64000000000000000000000000600082015250565b6000614cc5601483614219565b9150614cd082614c8f565b602082019050919050565b60006020820190508181036000830152614cf481614cb8565b9050919050565b600081549050919050565b60008190508160005260206000209050919050565b600081549050919050565b60008190508160005260206000209050919050565b60008154614d48816147a3565b614d528186613e54565b94506001821660008114614d6d5760018114614d8357614db6565b60ff198316865281151560200286019350614db6565b614d8c856148cd565b60005b83811015614dae57815481890152600182019150602081019050614d8f565b808801955050505b50505092915050565b6000614dcb8383614d3b565b905092915050565b6000600182019050919050565b6000614deb82614d1b565b614df58185613fac565b935083602082028501614e0785614d26565b8060005b85811015614e4257848403895281614e238582614dbf565b9450614e2e83614dd3565b925060208a01995050600181019050614e0b565b50829750879550505050505092915050565b6000614e608383614de0565b905092915050565b6000600182019050919050565b6000614e8082614cfb565b614e8a8185613f8b565b935083602082028501614e9c85614d06565b8060005b85811015614ed757848403895281614eb88582614e54565b9450614ec383614e68565b925060208a01995050600181019050614ea0565b50829750879550505050505092915050565b60006060820190508181036000830152614f03818661422a565b9050614f126020830185613c0e565b8181036040830152614f248184614e75565b9050949350505050565b60008154614f3b816147a3565b614f458186614803565b94506001821660008114614f605760018114614f7557614fa8565b60ff1983168652811515820286019350614fa8565b614f7e856148cd565b60005b83811015614fa057815481890152600182019150602081019050614f81565b838801955050505b50505092915050565b6000614fbd8284614f2e565b915081905092915050565b7f4e616d65206e6f7420666f756e6420696e206e6f74696669636174696f6e7300600082015250565b6000614ffe601f83614219565b915061500982614fc8565b602082019050919050565b6000602082019050818103600083015261502d81614ff1565b9050919050565b7f456e726f6c6c6d656e74206e6f7420666f756e6420696e206e6f74696669636160008201527f74696f6e73000000000000000000000000000000000000000000000000000000602082015250565b6000615090602583614219565b915061509b82615034565b604082019050919050565b600060208201905081810360008301526150bf81615083565b9050919050565b7f4e487b7100000000000000000000000000000000000000000000000000000000600052601260045260246000fd5b600061510082613c1d565b915061510b83613c1d565b92508261511b5761511a6150c6565b5b828204905092915050565b600061513182613c1d565b915061513c83613c1d565b925082820390508181111561515457615153614856565b5b92915050565b600061516582613c1d565b915061517083613c1d565b925082820261517e81613c1d565b9150828204841483151761519557615194614856565b5b5092915050565b600060ff82169050919050565b60006151b48261519c565b91506151bf8361519c565b9250828201905060ff8111156151d8576151d7614856565b5b92915050565b7f496e76616c69642063686172616374657220696e2074686520737472696e6700600082015250565b6000615214601f83614219565b915061521f826151de565b602082019050919050565b6000602082019050818103600083015261524381615207565b9050919050565b600061525582613c1d565b915061526083613c1d565b925082820190508082111561527857615277614856565b5b9291505056fea264697066735822122031b251b0f5acf95c6d3cf31a26a66b2032d9785a6a03831531b987362a53987e64736f6c63430008120033",
  "linkReferences": {},
  "deployedLinkReferences": {}
}