{
  "_format": "hh-sol-artifact-1",
  "contractName": "Agent",
  "sourceName": "contracts/Agent.sol",
  "abi": [
    {
      "inputs": [
        {
          "internalType": "string",
          "name": "_name",
          "type": "string"
        },
        {
          "internalType": "string",
          "name": "_emailId",
          "type": "string"
        },
        {
          "internalType": "string",
          "name": "_hash",
          "type": "string"
        }
      ],
      "name": "add_otherP",
      "outputs": [
        {
          "internalType": "string",
          "name": "",
          "type": "string"
        }
      ],
      "stateMutability": "nonpayable",
      "type": "function"
    },
    {
      "inputs": [
        {
          "internalType": "string",
          "name": "_fname",
          "type": "string"
        },
        {
          "internalType": "string",
          "name": "_lname",
          "type": "string"
        },
        {
          "internalType": "uint256",
          "name": "_enroll",
          "type": "uint256"
        },
        {
          "internalType": "uint256",
          "name": "_gender",
          "type": "uint256"
        },
        {
          "internalType": "string",
          "name": "_state",
          "type": "string"
        },
        {
          "internalType": "string",
          "name": "_city",
          "type": "string"
        },
        {
          "internalType": "uint256",
          "name": "_pincode",
          "type": "uint256"
        },
        {
          "internalType": "string",
          "name": "_course",
          "type": "string"
        },
        {
          "internalType": "string",
          "name": "_emailId",
          "type": "string"
        },
        {
          "internalType": "string",
          "name": "_hash",
          "type": "string"
        }
      ],
      "name": "add_student",
      "outputs": [
        {
          "internalType": "string",
          "name": "",
          "type": "string"
        }
      ],
      "stateMutability": "nonpayable",
      "type": "function"
    },
    {
      "inputs": [
        {
          "internalType": "string",
          "name": "_name",
          "type": "string"
        },
        {
          "internalType": "string",
          "name": "_uaddress",
          "type": "string"
        },
        {
          "internalType": "string",
          "name": "_emailId",
          "type": "string"
        },
        {
          "internalType": "string",
          "name": "_hash",
          "type": "string"
        }
      ],
      "name": "add_university",
      "outputs": [
        {
          "internalType": "string",
          "name": "",
          "type": "string"
        }
      ],
      "stateMutability": "nonpayable",
      "type": "function"
    },
    {
      "inputs": [
        {
          "internalType": "uint256",
          "name": "",
          "type": "uint256"
        }
      ],
      "name": "otherPList",
      "outputs": [
        {
          "internalType": "address",
          "name": "",
          "type": "address"
        }
      ],
      "stateMutability": "view",
      "type": "function"
    },
    {
      "inputs": [
        {
          "internalType": "uint256",
          "name": "",
          "type": "uint256"
        }
      ],
      "name": "studentList",
      "outputs": [
        {
          "internalType": "address",
          "name": "",
          "type": "address"
        }
      ],
      "stateMutability": "view",
      "type": "function"
    },
    {
      "inputs": [
        {
          "internalType": "uint256",
          "name": "",
          "type": "uint256"
        }
      ],
      "name": "universityList",
      "outputs": [
        {
          "internalType": "address",
          "name": "",
          "type": "address"
        }
      ],
      "stateMutability": "view",
      "type": "function"
    }
  ],
  "bytecode": "0x608060405234801561001057600080fd5b506110df806100206000396000f3fe608060405234801561001057600080fd5b50600436106100625760003560e01c80633c259497146100675780636e55bca1146100975780637df221e9146100c7578063c81b4876146100f7578063e1b1005014610127578063fb2ab10f14610157575b600080fd5b610081600480360381019061007c9190610980565b610187565b60405161008e9190610ba2565b60405180910390f35b6100b160048036038101906100ac9190610bc4565b610368565b6040516100be9190610c32565b60405180910390f35b6100e160048036038101906100dc9190610bc4565b6103a7565b6040516100ee9190610c32565b60405180910390f35b610111600480360381019061010c9190610c4d565b6103e6565b60405161011e9190610ba2565b60405180910390f35b610141600480360381019061013c9190610bc4565b610508565b60405161014e9190610c32565b60405180910390f35b610171600480360381019061016c9190610cf4565b610547565b60405161017e9190610ba2565b60405180910390f35b606060003390506101966106a6565b8c81600001819052508b81602001819052508a81604001818152505089816060018181525050888160800181905250878160a00181905250868160c0018181525050858160e00181905250848161010001819052508381610120018190525080600460003373ffffffffffffffffffffffffffffffffffffffff1673ffffffffffffffffffffffffffffffffffffffff168152602001908152602001600020600082015181600001908161024a9190610fd7565b5060208201518160010190816102609190610fd7565b506040820151816002015560608201518160030155608082015181600401908161028a9190610fd7565b5060a08201518160050190816102a09190610fd7565b5060c0820151816006015560e08201518160070190816102c09190610fd7565b506101008201518160080190816102d79190610fd7565b506101208201518160090190816102ee9190610fd7565b509050506001829080600181540180825580915050600190039060005260206000200160009091909190916101000a81548173ffffffffffffffffffffffffffffffffffffffff021916908373ffffffffffffffffffffffffffffffffffffffff1602179055508c925050509a9950505050505050505050565b6003818154811061037857600080fd5b906000526020600020016000915054906101000a900473ffffffffffffffffffffffffffffffffffffffff1681565b600181815481106103b757600080fd5b906000526020600020016000915054906101000a900473ffffffffffffffffffffffffffffffffffffffff1681565b606060003390506103f56106f9565b85816000018190525084816020018190525083816040018190525080600660003373ffffffffffffffffffffffffffffffffffffffff1673ffffffffffffffffffffffffffffffffffffffff16815260200190815260200160002060008201518160000190816104659190610fd7565b50602082015181600101908161047b9190610fd7565b5060408201518160020190816104919190610fd7565b509050506003829080600181540180825580915050600190039060005260206000200160009091909190916101000a81548173ffffffffffffffffffffffffffffffffffffffff021916908373ffffffffffffffffffffffffffffffffffffffff1602179055508060000151925050509392505050565b6002818154811061051857600080fd5b906000526020600020016000915054906101000a900473ffffffffffffffffffffffffffffffffffffffff1681565b6060600033905061055661071a565b86816000018190525085816020018190525084816040018190525083816060018190525080600560003373ffffffffffffffffffffffffffffffffffffffff1673ffffffffffffffffffffffffffffffffffffffff16815260200190815260200160002060008201518160000190816105cf9190610fd7565b5060208201518160010190816105e59190610fd7565b5060408201518160020190816105fb9190610fd7565b5060608201518160030190816106119190610fd7565b50608082015181600401908051906020019061062e929190610749565b509050506002829080600181540180825580915050600190039060005260206000200160009091909190916101000a81548173ffffffffffffffffffffffffffffffffffffffff021916908373ffffffffffffffffffffffffffffffffffffffff160217905550806000015192505050949350505050565b604051806101400160405280606081526020016060815260200160008152602001600081526020016060815260200160608152602001600081526020016060815260200160608152602001606081525090565b60405180606001604052806060815260200160608152602001606081525090565b6040518060a0016040528060608152602001606081526020016060815260200160608152602001606081525090565b8280548282559060005260206000209081019282156107c2579160200282015b828111156107c15782518260006101000a81548173ffffffffffffffffffffffffffffffffffffffff021916908373ffffffffffffffffffffffffffffffffffffffff16021790555091602001919060010190610769565b5b5090506107cf91906107d3565b5090565b5b808211156107ec5760008160009055506001016107d4565b5090565b6000604051905090565b600080fd5b600080fd5b600080fd5b600080fd5b6000601f19601f8301169050919050565b7f4e487b7100000000000000000000000000000000000000000000000000000000600052604160045260246000fd5b6108578261080e565b810181811067ffffffffffffffff821117156108765761087561081f565b5b80604052505050565b60006108896107f0565b9050610895828261084e565b919050565b600067ffffffffffffffff8211156108b5576108b461081f565b5b6108be8261080e565b9050602081019050919050565b82818337600083830152505050565b60006108ed6108e88461089a565b61087f565b90508281526020810184848401111561090957610908610809565b5b6109148482856108cb565b509392505050565b600082601f83011261093157610930610804565b5b81356109418482602086016108da565b91505092915050565b6000819050919050565b61095d8161094a565b811461096857600080fd5b50565b60008135905061097a81610954565b92915050565b6000806000806000806000806000806101408b8d0312156109a4576109a36107fa565b5b60008b013567ffffffffffffffff8111156109c2576109c16107ff565b5b6109ce8d828e0161091c565b9a505060208b013567ffffffffffffffff8111156109ef576109ee6107ff565b5b6109fb8d828e0161091c565b9950506040610a0c8d828e0161096b565b9850506060610a1d8d828e0161096b565b97505060808b013567ffffffffffffffff811115610a3e57610a3d6107ff565b5b610a4a8d828e0161091c565b96505060a08b013567ffffffffffffffff811115610a6b57610a6a6107ff565b5b610a778d828e0161091c565b95505060c0610a888d828e0161096b565b94505060e08b013567ffffffffffffffff811115610aa957610aa86107ff565b5b610ab58d828e0161091c565b9350506101008b013567ffffffffffffffff811115610ad757610ad66107ff565b5b610ae38d828e0161091c565b9250506101208b013567ffffffffffffffff811115610b0557610b046107ff565b5b610b118d828e0161091c565b9150509295989b9194979a5092959850565b600081519050919050565b600082825260208201905092915050565b60005b83811015610b5d578082015181840152602081019050610b42565b60008484015250505050565b6000610b7482610b23565b610b7e8185610b2e565b9350610b8e818560208601610b3f565b610b978161080e565b840191505092915050565b60006020820190508181036000830152610bbc8184610b69565b905092915050565b600060208284031215610bda57610bd96107fa565b5b6000610be88482850161096b565b91505092915050565b600073ffffffffffffffffffffffffffffffffffffffff82169050919050565b6000610c1c82610bf1565b9050919050565b610c2c81610c11565b82525050565b6000602082019050610c476000830184610c23565b92915050565b600080600060608486031215610c6657610c656107fa565b5b600084013567ffffffffffffffff811115610c8457610c836107ff565b5b610c908682870161091c565b935050602084013567ffffffffffffffff811115610cb157610cb06107ff565b5b610cbd8682870161091c565b925050604084013567ffffffffffffffff811115610cde57610cdd6107ff565b5b610cea8682870161091c565b9150509250925092565b60008060008060808587031215610d0e57610d0d6107fa565b5b600085013567ffffffffffffffff811115610d2c57610d2b6107ff565b5b610d388782880161091c565b945050602085013567ffffffffffffffff811115610d5957610d586107ff565b5b610d658782880161091c565b935050604085013567ffffffffffffffff811115610d8657610d856107ff565b5b610d928782880161091c565b925050606085013567ffffffffffffffff811115610db357610db26107ff565b5b610dbf8782880161091c565b91505092959194509250565b7f4e487b7100000000000000000000000000000000000000000000000000000000600052602260045260246000fd5b60006002820490506001821680610e1257607f821691505b602082108103610e2557610e24610dcb565b5b50919050565b60008190508160005260206000209050919050565b60006020601f8301049050919050565b600082821b905092915050565b600060088302610e8d7fffffffffffffffffffffffffffffffffffffffffffffffffffffffffffffffff82610e50565b610e978683610e50565b95508019841693508086168417925050509392505050565b6000819050919050565b6000610ed4610ecf610eca8461094a565b610eaf565b61094a565b9050919050565b6000819050919050565b610eee83610eb9565b610f02610efa82610edb565b848454610e5d565b825550505050565b600090565b610f17610f0a565b610f22818484610ee5565b505050565b5b81811015610f4657610f3b600082610f0f565b600181019050610f28565b5050565b601f821115610f8b57610f5c81610e2b565b610f6584610e40565b81016020851015610f74578190505b610f88610f8085610e40565b830182610f27565b50505b505050565b600082821c905092915050565b6000610fae60001984600802610f90565b1980831691505092915050565b6000610fc78383610f9d565b9150826002028217905092915050565b610fe082610b23565b67ffffffffffffffff811115610ff957610ff861081f565b5b6110038254610dfa565b61100e828285610f4a565b600060209050601f831160018114611041576000841561102f578287015190505b6110398582610fbb565b8655506110a1565b601f19841661104f86610e2b565b60005b8281101561107757848901518255600182019150602085019450602081019050611052565b868310156110945784890151611090601f891682610f9d565b8355505b6001600288020188555050505b50505050505056fea264697066735822122019b0050ef16290d1e71bb5c3b698831b0400847a07ff723b5b5c2191a8910ea364736f6c63430008120033",
  "linkReferences": {},
  "deployedLinkReferences": {}
}